:020000040800F2
:100000002005002065010008871A00081118000863
:10001000851A000869050008271E00080000000076
:100020000000000000000000000000008B1A000823
:100030006B05000800000000891A00088D1A0008EE
:100040007F0100087F0100087F0100087F01000890
:100050007F0100087F0100087F0100087F01000880
:100060007F0100087F0100087F0100087F01000870
:100070007F0100087F0100087F0100087F01000860
:100080007F0100087F0100087F0100087F01000850
:100090007F0100087F0100087F0100087F01000840
:1000A0007F0100087F0100087F0100087F01000830
:1000B0007F0100087F0100087F0100087F01000820
:1000C0007F0100087F0100087F0100087F01000810
:1000D0007F0100087F0100087F0100087F01000800
:1000E0007F0100087F0100087F0100080000000078
:1000F0000000000000000000000000000000000000
:1001000000000000000000007F0100087F010008DF
:100110007F0100087F0100087F0100087F010008BF
:100120007F0100087F0100087F0100087F010008AF
:100130007F0100087F0100087F0100087F0100089F
:100140007F0100087F0100087F0100087F0100088F
:10015000DFF80CD000F098F900480047C11E0008F5
:10016000200500200648804706480047FEE7FEE7D6
:10017000FEE7FEE7FEE7FEE7FEE7FEE7FEE7FEE757
:10018000F11A0008510100082DE9F05F0546002032
:1001900092469B4688460646814640241BE02846F8
:1001A00041464746224600F020F853465A46C01AB8
:1001B000914110D311461846224600F0F9F82D1A45
:1001C00067EB01084F4622460120002100F0F0F8BD
:1001D00017EB00094E41201EA4F10104DFDC484664
:1001E00031462A464346BDE8F09F202A04DB203AE8
:1001F00021FA02F00021704721FA02F3D040C2F147
:100200002002914008431946704740EA01039B07CA
:1002100003D009E008C9121F08C0042AFAD203E07B
:1002200011F8013B00F8013B521EF9D27047D2B2DF
:1002300001E000F8012B491EFBD270470022F6E7CF
:1002400010B513460A4604461946FFF7F0FF20464C
:1002500010BD2DE9FE4F81EA030404F0004421F0B3
:10026000004100944FF0000B23F0004350EA0104DA
:100270005ED052EA03045BD0C3F30A54C1F30A55BB
:100280002C44A4F2F3340194A0FB0254C1F31301F3
:1002900041F48011C3F3130343F4801301FB0244C0
:1002A00000FB034E840A970A44EA815447EA8357C5
:1002B000A4FB076802958D0A05FB07854FEA932C7E
:1002C00004FB0C542705029D4FEA065847EA1637EF
:1002D000B5EB08056EEB070C870E920E47EA811707
:1002E00042EA8312A7FB0201B6EB0B0164EB0004A8
:1002F0002B0D43EA0C335E1844EB1C50DA46514692
:10030000E7FB0201C5F313044FEA0B3343EA14532E
:100310004FEA0432019C43EA0603A4F10C04029460
:10032000009CCDE900B400F061F803B0BDE8F08FA7
:1003300000200146F9E770B521F0004303430CD0DB
:10034000C1F30A550024D5EB040564EB0403D6176A
:10035000AD1AB34102DB0020014670BD201841EB0D
:10036000025170BD0EB540F2334102910021CDE93A
:1003700000110A460B4600F039F803B000BDC1F386
:100380000A5210B5C1F3130140F2FF3341F480115A
:100390009A4201DA002010BD40F233439A42A2F2A1
:1003A000334203DC5242FFF720FF10BD904010BDE6
:1003B000202A04DB203A00FA02F100207047914025
:1003C000C2F1200320FA03F319439040704710B59F
:1003D000141E73F1000408DA401C41F10001921868
:1003E0005B411A4301D120F0010010BD2DE9F04D11
:1003F00092469B4611B1B1FA81F202E0B0FA80F266
:1004000020329046FFF7D4FF04460F4640EA0A0028
:1004100041EA0B0153465A46084313D0114653EAAA
:10042000010019D0C8F140025046FFF7DEFE054634
:100430000E46504659464246FFF7BAFF084305D0DC
:10044000012004E020463946BDE8F08D0020054338
:1004500046EAE0762C4337430A986305E40AA0EBAA
:1004600008000022FD0A44EA47540A3002D5002061
:100470000146E9E7010510196941DDE90845001960
:100480006941BDE8F04DA2E7064C074D06E0E06883
:1004900040F0010394E8070098471034AC42F6D3CB
:1004A000FFF75AFE142000083420000870B50446F7
:1004B00000688168C943C9071CD1816821F0010126
:1004C000816000F0C1FA05460FE000BF00F0BCFA01
:1004D000401B022809D9A06A40F01000A062E06A1F
:1004E00040F00100E062012070BD20688068C043D8
:1004F000C007EBD0002070BDF8B50026044600967A
:1005000000688168C943C90728D0816841F00101AA
:100510008160134813490068B0FBF1F000E0401E11
:1005200000900028FBD100F08FFA054611E000BFD3
:1005300000F08AFA401B02280BD9A06A40F0100094
:10054000A062E06A40F00100E06284F824600120CB
:10055000F8BD20688068C043C007E9D10020F8BD1D
:100560001C00002040420F00FEE7704710B5224CEF
:10057000062840D2DFE800F03F03051622380022AB
:1005800033E001220421204600F058FA002208211D
:10059000204600F053FA01222021204600F04EFAB6
:1005A00001221BE001220421204600F047FA01222B
:1005B0000821204600F042FA0022EDE70122042142
:1005C000204600F03BFA01220821204600F036FACE
:1005D00001222021204600F031FA00222046BDE809
:1005E0001040802100F02ABA01220421204600F0A8
:1005F00025FA0122CBE710BD0010014070470068CA
:10060000C06C70472DE9F0414FF0000704003D46F3
:100610007ED0A06A002628B9E66284F824602046CD
:1006200000F07EF82046FFF741FFA16AC90600D41A
:1006300020B1A06A40F01000A06269E0A16A21F434
:10064000885141F00201A1626268E169237B0A439B
:1006500047EA43010A43A1684FF48077B94209D0C1
:10066000012907D05FF0000194F814C0BCF1010F1C
:1006700002D00AE03946F7E7F3B1A36A43F020035A
:10068000A362E36A43F00103E3622368D3F804C082
:100690002CF4694C4CEA010CC3F804C021688B6847
:1006A000DFF870C003EA0C0313438B60A168B94202
:1006B0000BD0012909D00CE0DFF85CC0A3690CEB7A
:1006C00043330B4343F40061DFE7218A0D05A5F5B1
:1006D00080152168CB6A23F470032B43CB62216819
:1006E00089680E4B1940914208D1E662A16A21F057
:1006F000020141F00101A162BDE8F081A06A20F091
:10070000020040F01000A062E06A40F00100E062E8
:100710000120F1E7FDF7E1FF00E0FFFFFE0E1FFF04
:1007200000B585B00021009101910291039100680C
:100730000E49884218D10E48816941F400718161E7
:10074000816901F400710491816941F010018161B6
:100750008069694600F0100004901020009003208A
:100760000190044800F07AF805B000BD0024014073
:10077000001002400010014070B5044690F82400BB
:1007800001280DD0012084F824002046FFF7B4FE94
:1007900002004FF0000005D084F82400104670BD20
:1007A000022070BDA16A40F20123994341F4807197
:1007B000A1621F4D23681F49AB4218D10E6816F481
:1007C000702F14D0A66A46F48016A6620E687605CD
:1007D00005D5A66A26F4005646F48056A662A66A97
:1007E000F6040AD5E66A26F00606E66206E0A66A80
:1007F00026F48016A6625E68E9E7E06284F82400C9
:100800006FF00200186020688368C3F34243072B2F
:1008100005D1A84208D1096811F4702F04D081686D
:1008200041F480118160B9E7816841F4A001F9E7E2
:10083000002801400424014070B5044600F004F98A
:100840000546601C02D004480078044400F0FCF81F
:10085000401BA042FAD370BD100000202DE9F84FD4
:10086000DFF8B891002409F1040A0AF1040B2346C9
:100870000F270BF1040EC9E00125A5402A40AA422A
:100880007DD1674ED1F804C0ACEB0608B44532D038
:1008900014DCBCF1030F3AD009DCBCF1000F2AD004
:1008A000BCF1010F1CD0BCF1020F31D11DE0BCF135
:1008B000110F17D0BCF1120F2AD119E0B8F5881F1B
:1008C00019D006DCB8F5803F15D0B8F5801F1FD1D0
:1008D00011E0B8F5001F0ED0B8F5041F18D10AE0DA
:1008E000CB6815E0CB681B1D12E0CB6808330FE026
:1008F000CB680C330CE08B682BB1012B4FF0080355
:1009000003D0456104E0042302E0056100E0002318
:10091000FF2A01D8064601E000F104064FEA8405EB
:1009200001D9A5F12005D6F8008007FA05FC28EAD0
:100930000C0803FA05F548EA0508C6F800804D687A
:10094000ED0062D5374DAE6946F00106AE61AD6986
:1009500024F0030605F001050095334D06EB050C68
:10096000DCF80850A607360F07FA06F825EA08054E
:10097000DFF8B880404503D14FF0000817E044E0AD
:10098000DFF8AC80404502D14FF001080FE0DFF8FE
:10099000A480404502D14FF0020808E0DFF89880BB
:1009A000404502D14FF0030801E04FF0040808FA77
:1009B00006F848EA0508CCF808804D68D9F80060C8
:1009C000ED034D4601D5164300E096432E604D6879
:1009D000DAF80060AD03554601D5164300E09643B2
:1009E0002E604D68DBF80060ED025D4601D51643D0
:1009F00000E096432E604D68DEF80060AD0275465B
:100A000001D5164300E096432E60641C0D682A460B
:100A1000E5407FF431AFBDE8F88F000000040140ED
:100A200000001110001002400000014000080140C9
:100A3000000C014000100140001401400AB10161A6
:100A400070470904FBE70000014880687047000018
:100A500010000020024881680278114481607047CC
:100A600010000020074810B5016841F01001016036
:100A7000032000F067F8002000F006F800F024F8EA
:100A8000002010BD0020024070B50D4D04464FF40B
:100A90007A712878B1FBF0F00A490968B1FBF0F0EF
:100AA00000F00CFC48B9102C07D200222146501E41
:100AB00000F028F800206C6070BD012070BD0000BF
:100AC000100000201C0000200C4808B5816941F08E
:100AD00001018161816901F001010091C16941F069
:100AE0008051C161C06900F08050009004484168A5
:100AF00021F0E06141F00071416008BD001002404A
:100B000000000140F0B40E4B1B680C46C3F30223F7
:100B1000C3F10705042D00D90425191D072901D2A9
:100B2000002300E0DB1E012606FA05F1491E2140E4
:100B300099409E40761E16403143F0BC01F074B9D6
:100B40000CED00E0064900F0070208684FF6FF03CD
:100B5000184040EA0220034A104308607047000032
:100B60000CED00E00000FA052DE9F843044600789A
:100B70005B4DC0074FF0010951D0E8690026C00065
:100B800008D4E86940F08050E861E869012600F087
:100B90008050009053480168C90512D4016880460E
:100BA00041F480710160FFF74FFF074605E000BF89
:100BB000FFF74AFFC01B642877D8D8F80000C005AB
:100BC000F6D5286A10F440701ED0A18801F4407157
:100BD000814219D0286A444920F44070C1F800903D
:100BE00000220A602862C0070ED0FFF72DFF0746DB
:100BF00041F2883805E000BFFFF726FFC11B4145E1
:100C000053D8286A8007F7D5286A616820F44070B5
:100C1000084328621EB1E86920F08050E86120781E
:100C2000800705D56868A16820F4404008436860E3
:100C30002078400705D5E86AE16820F400300843D1
:100C4000E8622078000705D5E86A216920F4802051
:100C50000843E862E86A800302D4E86A400333D5B7
:100C60002868C00028D42868400105D5E86AA16931
:100C700000F0F000884225D1E86AA16920F0F00078
:100C80000843E862E86A616920F470400843E8625A
:100C90001649C1F87090FFF7D7FE064608E004E059
:100CA000FFF7D2FE801B642802D90320BDE8F88339
:100CB00028688000F4D507E0E86A616900F47040B4
:100CC000884201D00120F1E72078C00605D5686888
:100CD000E16920F48000084368600020E6E7000036
:100CE00000100240007000404004424200004242B6
:100CF0002DE9F0470F46050061D0434E306800F003
:100D00000700B84209D2306820F00700384330604D
:100D1000306800F00700B84251D128683B4C810789
:100D200012D5400703D5606840F4E0606060287821
:100D3000000703D5606840F4605060606068A9688F
:100D400020F0F000084360602878C00728D0686869
:100D5000012810D02168022810D0890700292EDA36
:100D6000616821F0030101436160FFF76DFE804679
:100D700041F288390DE021688903EFE78901EDE749
:100D8000FFF762FEA0EB0801494502D90320BDE848
:100D9000F0876068696800F00C00B0EB810FEFD15C
:100DA000306800F00700B8420BD9306820F0070027
:100DB00038433060306800F00700B84201D00120AD
:100DC000E5E72878400705D56068E96820F4E06029
:100DD000084360602878000706D56068296920F418
:100DE000605040EAC100606000F018F86168084A8D
:100DF000C1F30311515CC840064908600648006809
:100E0000FFF742FE0020C2E700200240001002402F
:100E1000042000081C00002014000020F0B523A2CC
:100E200089B00FCA04AC84E80F0024A10FC98DE873
:100E30000F0026494A68264802F00C03042B2FD0E5
:100E4000082B2DD104A8C2F38343C45CD00329D559
:100E5000C86A00F00F001DF80020C86AC00316D54C
:100E6000C86AC96AC0F30310C1F30321401C891C7E
:100E7000A0FB0223A1FB0416154F0025A1FB070CC4
:100E800006FB07C601FB0561FFF77EF903E010488A
:100E90006043B0FBF2F09DF81D10A14200D1400864
:100EA00009B0F0BD0B486043FAE7000000000405FC
:100EB0000607080900000000000D000001020304FD
:100EC00005060708090A0B0C0D0E0F100010024052
:100ED00000127A0000093D002DE9F84F040070D09F
:100EE0002078F14DC00749D06868C0F3810001281F
:100EF00007D06868C0F38100022809D16868C00380
:100F000006D52868800339D5A0680028E7D035E0E9
:100F1000A068B0F5803F0BD010B1B0F5A02F11D074
:100F2000286820F480302860286820F4802002E0BF
:100F3000286840F480302860A06890B1FFF784FDF5
:100F400006460AE0286840F480202860F0E700BFE9
:100F5000FFF77AFD801B642876D828688003F7D5D0
:100F60000CE0FFF771FD064605E000BFFFF76CFDE2
:100F7000801B6428F0D828688003F7D42078CB4EF3
:100F800080074FF001094FF000073AD5686810F06C
:100F90000C0F07D06868C0F38100022809D1686887
:100FA000C00306D42868800715D56069012808D1D8
:100FB00011E06069B8B1C6F80090FFF745FD8046C2
:100FC00006E042E1FFF740FDA0EB08000228C3D88D
:100FD00028688007F6D52868A16920F0F80040EA63
:100FE000C10028600DE03760FFF72EFD804605E068
:100FF000FFF72AFDA0EB08000228ADD8286880077B
:10100000F6D4207800072ED5A948E169E9B1C0F8E7
:101010000090FFF719FD804606E000BFFFF714FDC2
:10102000A0EB0800022897D8686A8007F6D5A14887
:101030004FF4FA510068B0FBF1F0009000BF009847
:10104000411E0091FAD20EE0B0E00760FFF7FCFC11
:10105000804605E0FFF7F8FCA0EB0800022889D8DD
:10106000686A8007F6D42078400763D5E8694FF0B6
:101070000008C00009D4E86940F08050E861E869E0
:101080004FF0010800F0805000908B480168C905BE
:1010900012D40168834641F480710160FFF7D4FCEB
:1010A000824605E0FFF7D0FCA0EB0A0064287DD85B
:1010B000DBF80000C005F5D5206901280AD008B189
:1010C000052813D0286A20F001002862286A20F041
:1010D000040002E0286A40F001002862206941F221
:1010E000883B98B1FFF7B0FC82460BE0286A40F0DD
:1010F00004002862EEE700BFFFF7A6FCA0EB0A01A0
:10110000594553D8286A8007F6D50CE0FFF79CFCB8
:10111000824605E0FFF798FCA0EB0A01594545D847
:10112000286A8007F6D4B8F1000F03D0E86920F0F0
:101130008050E861E06AD0B36968C90307D569687F
:10114000C1F38101022902D1E96AC9037DD40228D1
:1011500008D0E86A20F48030E862B766FFF774FCD4
:1011600080463BE02868C00005D5E86A616B00F066
:10117000F000884269D1B766FFF766FC804605E05B
:10118000FFF762FCA0EB0800642874D8286800010F
:10119000F6D4E86A616B20F0F0000843E862E86A80
:1011A000216B20F470600843E86201E063E018E01E
:1011B000C6F86890FFF748FC804605E0FFF744FC5E
:1011C000A0EB0800642856D828680001F6D508E08E
:1011D000FFF73AFCA0EB080064284CD8286800010F
:1011E000F6D4206A90B36968C1F38101022949D01D
:1011F0000228376603D0FFF727FC04463EE0FFF7DE
:1012000023FC074605E000BFFFF71EFCC01B0228B9
:1012100031D828688001F7D4606AB0F5803F09D1E1
:10122000E86A61680843E862E86AE16820F00F0054
:101230000843E862D4E909010843696821F474119C
:1012400008436860C6F8609001E028E029E0FFF7F5
:10125000FBFB044605E000BFFFF7F6FB001B02287E
:1012600009D828688001F7D51BE000BFFFF7ECFB29
:10127000001B022802D90320BDE8F88F28688001EE
:10128000F4D40EE00128F7D06868626A00F4803177
:10129000914204D1A16A00F47010884201D001206B
:1012A000EAE70020E8E700000010024000004242A8
:1012B000800442421C0000200070004010B5401E17
:1012C000B0F1807F01D3012010BD4FF0E0246061B8
:1012D0000F21601700F0A8FD0020A0610720206109
:1012E000002010BD70B590F83C20012A19D00124CF
:1012F00000F83C4F0222427050F83C3C5A689D680E
:1013000022F070060A684968324325F080052943B7
:101310005A6050F83C2C91604470002101700846DE
:1013200070BD022070BD10B5040003D094F83D00DC
:1013300010B107E0012010BD002084F83C002046D9
:1013400000F00CF8022084F83D00211D206800F018
:10135000F9FB012084F83D00002010BD00B585B0E8
:101360000021009101910291039101681948B1F1A6
:10137000804F0CD0184A914211D1C16941F002014D
:10138000C161C06900F00200049005B000BDC169F0
:1013900041F00101C161C06900F00100F4E70F4AAA
:1013A0009142F2D1C16941F00401C161C16901F00A
:1013B00004010491816941F00801816180696946F5
:1013C00000F008000490802000900548FFF746FADE
:1013D000DBE700000010024000040040000800406D
:1013E000000C01400168CA6842F00102CA6000684E
:1013F000816801F00701062903D0016841F001016D
:1014000001600020704770B5044690F83C00012848
:1014100017D0012584F83C50022084F83D00206854
:10142000826822F0770222F47F42826008685028A6
:1014300030D00DDC20284DD005DC98B310283BD1EE
:1014400048E0022070BD302844D0402834D139E033
:10145000602828D0702806D0B0F5805F2CD0B0F579
:10146000005F29D10AE0CB68D1E90121206800F0B2
:10147000B4FB2068816841F0770109E0CB68D1E9CD
:101480000121206800F0A9FB2068816841F48041B7
:10149000816011E0CA684968206800F053FC50215F
:1014A000206807E016E0CA684968206800F08EFCF2
:1014B0006021206800F09BFB84F83D50002084F8F8
:1014C0003C0070BDCA684968206800F03BFC4021C0
:1014D0002068EFE7226801461046EBE72DE9F0416E
:1014E000044690F83C000D4601283BD0012684F8C4
:1014F0003C60022084F83D009AB3042A44D020685E
:10150000082A53D0D5E90027E968036A23F48053F9
:101510000362D0F81CC0036A2CF4407C4CEA072715
:101520004FF6FF7C27F470470CEA0131394377030B
:1015300023F4005307EA02321A43C16102622068B1
:10154000C16921F44061C1612068C169AA6841EAAA
:101550000221C16184F83D60002084F83C00BDE8B0
:10156000F08101E00220FAE7D5E90012EB6820687B
:1015700000F0FAFB2068816921F00C01816120688C
:101580008169AA6811430FE0D5E90012EB68206871
:1015900000F02EFC2068816921F44061816120689F
:1015A0008169AA6841EA02218161D3E7D5E9002C6B
:1015B0002F7B016A21F480710162C169036A21F005
:1015C000030141EA0C0121F0F00C39074FF40077D8
:1015D0004CEA116123F4007307EA02221A43C16145
:1015E00002622068C16921F00C01C1612068C169F3
:1015F000AA681143ADE710B5040003D094F83D008C
:1016000010B107E0012010BD002084F83C00204606
:1016100000F00CF8022084F83D00211D206800F045
:1016200091FA012084F83D00002010BD70470000B1
:1016300000B585B0002100910191029103910068ED
:101640000B49884211D10B48816941F00401816145
:101650008069694600F00400049040200090022058
:10166000019003900448FFF7F9F805B000BD0000B1
:1016700000040040001002400008014070B504461C
:1016800090F83C000D4601280DD0012684F83C60FE
:10169000022084F83D0042B1042A18D0082A2AD03A
:1016A0000C2A4DD139E0022070BD206800F0A8FA64
:1016B0002068816941F0080181612068816921F019
:1016C00004018161206881692A69114311E0206861
:1016D00000F0BEFA2068816941F4006181612068F0
:1016E000816921F480618161206881692A6941EA08
:1016F0000221816124E0206800F0D6FA2068C169E7
:1017000041F00801C1612068C16921F00401C16193
:101710002068C1692A69114311E0206800F0F0FADD
:101720002068C16941F40061C1612068C16921F488
:101730008061C1612068C1692A6941EA0221C161F1
:1017400084F83D60002084F83C0070BD10B50400B2
:1017500003D094F83D0010B107E0012010BD002037
:1017600084F83C00204600F00CF8022084F83D008C
:10177000211D206800F0E6F9012084F83D000020DA
:1017800010BD704710B504460068012200F018FA39
:1017900009492068884203D1416C41F40041416409
:1017A0002068816801F00701062903D0016841F033
:1017B00001010160002010BD002C014010B504465D
:1017C0000068002200F0FCF9104B41F21111206872
:1017D0008A10984209D1036A0B4206D1036A134268
:1017E00003D1436C23F4004343642068036A0B4233
:1017F00006D1016A114203D1016821F001010160A3
:10180000012084F83D00002010BD0000002C0140A4
:10181000FEE700000C4810B50A4901600021816014
:10182000017301754FF46022C261416001210161C1
:10183000FEF7E8FE002803D0BDE81040FEF7DEBE4C
:1018400010BD000000240140300000202DE9F043CD
:1018500085B0002425480094019402940394816982
:1018600041F010018161816901F0100104918169E9
:1018700041F004018161816901F0040104918169F1
:1018800041F040018161816901F040010491816969
:1018900041F0080181618069DFF8548000F00800A0
:1018A00004900022AC214046FFF7C8F8DFF84490CE
:1018B0004FF47F47002239464846FFF7BFF8AC2077
:1018C00001250226CDE90005CDE9024669464046DC
:1018D000FEF7C4FF00970396CDE9015469464846D8
:1018E000FEF7BCFF05B0BDE8F08300000010024029
:1018F000001001400018014010B586B000241548C2
:10190000009401940294039404944FF08041059450
:10191000C0E900148460C46004618461FFF703FDC2
:1019200008B1FEF76BFE4FF48050009069460948FD
:10193000FFF769FD08B1FEF761FE049404A90548AC
:101940000594FFF7CFFC002801D0FEF757FE06B044
:1019500010BD00006000002010B58EB00024079478
:10196000089409940A940B941C2168460C94FEF781
:1019700065FC1F481D49016041F63F71C0E9011433
:1019800042F21071C0E903148461FFF7CCFC08B186
:10199000FEF734FE4FF48050079007A91448FFF774
:1019A00032FD08B1FEF72AFE1148FFF7CFFE08B15D
:1019B000FEF724FE0B940BA90D480C94FFF792FC44
:1019C00008B1FEF71BFE6020CDE90004029400225E
:1019D000694607480494FFF751FE08B1FEF70EFE72
:1019E0000348FFF725FE0EB010BD000000040040C4
:1019F000A000002010B58AB000242148049405946A
:101A000006940794089409940094019402941B4945
:101A10000394C0E900148460C46004618461FFF72A
:101A200082FC08B1FEF7EAFD4FF48050049004A94F
:101A30001348FFF7E8FC08B1FEF7E0FD1048FFF798
:101A4000DAFD08B1FEF7DAFD089408A90C480994FC
:101A5000FFF748FC08B1FEF7D1FD0120CDE90040B9
:101A600002940422694606480394FFF737FD0028D4
:101A700001D0FEF7C3FD0AB010BD00000008004011
:101A8000E0000020FEE7704770477047FEF7E2BFB6
:101A900070B59CB038216846FEF7D0FB14210EA823
:101AA000FEF7CCFB202113A8FEF7C8FB002402257B
:101AB00001261020089400950B94CDE90560684636
:101AC000FFF70AFA0F20CDE90E04109411940021BB
:101AD0000EA81294FFF70CF913A813951594FFF7AD
:101AE00043F8024806671CB070BD00000000424287
:101AF0001048016841F00101016041680E4A11403F
:101B0000416001680D4A11400160016821F48021A3
:101B10000160416821F4FE014160016821F0A0519B
:101B200001604FF47F0181600021C1620449C0035C
:101B300008607047001002400000FFF0FFFFF6FE53
:101B400008ED00E0F0B50268194B1A4C1A4D1B4E17
:101B50004FF08047984207D0B84205D0A04203D04A
:101B6000A84201D0B04204D122F0700C4A6842EA87
:101B70000C02984207D0B84205D0A04203D0A84238
:101B800001D0B04203D122F44074CA6822434C69A8
:101B900022F08002224302608A68C2620A6882627E
:101BA000984201D10969016301214161F0BD000042
:101BB000002C01400004004000080040000C0040E0
:101BC00010B501F01F030121046A99408C4304629F
:101BD000016A9A401143016210BD10B5846842EA5F
:101BE000032224F47F440A432243826010BD8268AA
:101BF00022F070020A4342F0070181607047000042
:101C000030B5026A22F001020262026A4368846906
:101C100024F073050C682C4322F002058A682A43DD
:101C20000A4DA8420BD122F00805CA6823F440737C
:101C30002A434D6922F004021D438B692B43436004
:101C4000846149684163026230BD0000002C01409C
:101C500030B5026A22F010020262026A43688469A7
:101C60000D6824F4E64444EA05248D6822F020023D
:101C700042EA05120B4DA8420ED1CD6822F0800237
:101C800042EA05124D6923F4406343EA85038D69F6
:101C900022F0400243EA850343608461496881631E
:101CA000026230BD002C014030B5026A22F480721D
:101CB0000262036A4268C46923F4007324F0730566
:101CC0000C682C438D6843EA05230C4DA8420ED1C5
:101CD000CD6823F4006343EA05234D6922F44052A2
:101CE00042EA05128D6923F4806342EA05124260DC
:101CF000C4614968C163036230BD0000002C01402B
:101D000030B5026A22F480520262046A4268C369F2
:101D10000D6823F4E64343EA05238D6824F4005458
:101D200044EA0534064DA84204D14D6922F48042AC
:101D300042EA85124260C36149680164046230BDB1
:101D4000002C014010B5036A046A24F00104046207
:101D5000846924F0F00444EA021423F00A020A43DE
:101D60008461026210BD000070B5046A24F00104B1
:101D700004628469056A114EB0420BD0B0F1804F05
:101D800008D00F4EB04205D00E4EB04202D00E4EDB
:101D9000B04203D124F00304144301E044F00104F1
:101DA0001A0724F0F00444EA126225F00A0301F055
:101DB0000A0119438261016270BD0000002C0140DC
:101DC0000004004000080040000C004010B5036A09
:101DD00023F0100303628369046A23F4704343EA27
:101DE000023224F0A00343EA01118261016210BDB6
:101DF00030B5046A24F0100404628469056A24F48E
:101E0000407444EA022222F470444FF6FF7202EA60
:101E100003322243A02425F0A00304EA0111194350
:101E20008261016230BDFEE70907090E002804DB6C
:101E300000F1E02080F80014704700F00F0000F17E
:101E4000E02080F8141D704702E008C8121F08C186
:101E5000002AFAD170477047002001E001C1121F2B
:101E6000002AFBD17047000014490A2824D2DFE879
:101E700000F005080B0E1114171A1D204FF44040F6
:101E800019E04FF4794016E04FF4244013E04FF48A
:101E9000304010E04FF419400DE04FF412400AE0DA
:101EA0004FF4024007E04FF4784004E04FF4004064
:101EB00001E04FF418400860704700000C08014032
:101EC000A8B0FEF7CFFDFFF7E3FDFFF7BFFCFFF77C
:101ED000A1FCFFF711FDFFF73FFDFFF78BFD424827
:101EE000FFF780FA4148FEF747FC00214048FFF722
:101EF00049FCDFF800A1404D4FF47A7B4FF00A080F
:101F00004FF0640900263948FEF779FB80B2544649
:101F1000AAF80000FEF726FA6FF00B02FEF70BFAA4
:101F20000022364BFEF795F9FEF729FA80B2B0FB96
:101F3000FBF1B0FBF8F35B42608003EB8303A1800D
:101F400000EB4303B0FBF9F7EB60B0FBF8F3B0FB39
:101F5000F9F07F4207EB87074A4203EB470302EBA6
:101F6000820200EB4200AB60C5E90010A068401C93
:101F7000A060042800D1A660A068401CFEF7F6FA15
:101F8000A06855F82000FFF76FFF1848FEF7F4FB34
:101F90003D221B4910A8FEF738F9194890F83D007A
:101FA0008DF87D00402210A96846FEF72EF9002129
:101FB00040F2E73764886846FFF700FC68460397FD
:101FC000FFF7C4FB20A9602081E851003246684633
:101FD0002496FFF753FB31466846FFF7D3FB0120F9
:101FE000FEF72AFC8FE70000600000203000002090
:101FF000A0000020000000202000002000408F40B2
:10200000E0000020000000000000000001020304C6
:102010000607080934200008000000202000000006
:10202000481E000854200008200000200005000081
:10203000581E000800000000000000000000000022
:10204000000000000100000010000000000000007F
:042050000024F40074
:04000005080001519D
:00000001FF
